:020000040800F2
:10000000880E0020391700081105000813050008A4
:10001000170500081B0500081F0500080000000068
:1000200000000000000000000000000023050008A0
:100030002505000800000000270500082905000824
:1000400053170008531700085317000853170008E8
:1000500053170008531700085317000853170008D8
:1000600053170008531700085317000853170008C8
:1000700053170008531700085317000853170008B8
:1000800053170008531700085317000853170008A8
:100090005317000853170008531700085317000898
:1000A0005317000853170008531700085317000888
:1000B00053170008531700083F090008531700089A
:1000C0005317000853170008531700085317000868
:1000D00053170008AF1600087F070008570C0008E8
:1000E0005317000853170008531700085317000848
:1000F0005317000853170008531700085317000838
:100100005317000853170008531700085317000827
:100110005317000853170008531700085317000817
:100120005317000853170008531700085317000807
:10013000DFF80CD003F002FD004800474903000837
:10014000880E00202DE9F04F91B000200F900E9006
:100150000D900C900B900A900990089000BF00BF82
:1001600000BF00BFC1480078AA287DD0BF48807872
:100170000104BE48C07801EB0020BC49097908445D
:100180000F90BA4840790104B848807901EB00200B
:10019000B649C97908440E90DDE90E10B0FBF1F0C4
:1001A000059003F09CFAB24AB24BCDE9060103F088
:1001B000ACF904460D46B04930C122462B46AFA0EB
:1001C00003F0F0FCA948007A0104A848407A01EB4A
:1001D0000020A649897A08440D90A448C07A0104F9
:1001E000A248007B01EB0020A049497B08440C9009
:1001F00064210D9848430C99B0FBF1F0059003F091
:100200006EFA0022A24BCDE9060103F0F0F9064692
:100210000F46A04AC0C295480078F02805DD0021AD
:1002200041F2AD6000F059FE38E09048807B010457
:100230008E48C07B01EB00208C49097C08440B9060
:100240008A48407C01048948807C01EB0020874972
:10025000C97C08440A90DDE90A10B0FBF1F0039074
:1002600003F03DFA824A00E068E0824BCDE90401E8
:1002700003F04BF90022884BCDE9060103F045F964
:10028000804689468549C1E9008903C903F078FAA7
:100290000146079041F2AD6000F01FFE7348007DFB
:1002A00000F080007E49098888420AD07D480078A5
:1002B000401C7C4908706D48007D00F08000784942
:1002C00008807848007801046848407D01EB0020F0
:1002D0006649897D084408900B9803F000FA644A47
:1002E000644BCDE9000103F010F902460B46CDE95D
:1002F000020100206C4903F07AF900226B4BCDE932
:10030000040103F002F9CDE9060103F0F5F90990C3
:1003100042F21071089848430999B0FBF1F005903A
:1003200003F0DDF90022614BCDE9060103F05FF92E
:1003300082468B465E4AC2E900AB02E05DA003F054
:1003400031FC11B0BDE8F08F00F0E0F901F0DAF80F
:100350004FF4A06001F086FF4FF4165001F04AF907
:100360004FF4965000F082FA4FF4165000F0F8FB6C
:1003700054A003F017FC01F076F875E012E00021BC
:1003800041F2AD6000F0A9FD002141F2DB6000F018
:10039000F1FD00F032FE4FF4FA6001F0F0F80020B9
:1003A0004C4908704B4800780028E8D14A48027848
:1003B0004A4801784AA003F0F5FB4FF4967001F02B
:1003C000DEF84C48008800F4004000284CD0494832
:1003D0000478182C45D1254840785A2841D1FFF798
:1003E000B1FE254903C903F0CBF943490860294907
:1003F00003C903F0C5F940494860284903C903F01F
:10040000BFF93D4988603D48007890B100203B49E4
:100410000870224903C903F0B3F90546164903C918
:1004200003F0AEF906462A4631462B48007800F024
:1004300032FB00F0B7FA324908700846017831A063
:1004400003F0B0FB2E48007830B12D48017841F21E
:10045000DB6000F08FFD04E0002141F2DB6000F082
:1004600089FD00202349088088E70000E804002077
:1004700014AE47E17A14FE3F08000020B5E7D1B979
:10048000D6B5A3BA25302E3266563B2000000000B8
:1004900000005940100000200000F03F180000202C
:1004A00002000020000000202A75B5410088C340EA
:1004B0002000002064617461206572726F720D0A01
:1004C000000000007468697320697320756172749C
:1004D000310D0A00C0000020BD000020BE00002039
:1004E000746578743A2025632C206E756D3A20254A
:1004F000630000003C000020E8080020BC00002051
:1005000004000020BDE1B9FB3B2025752000000060
:10051000704700BFFEE700BFFEE700BFFEE700BF79
:10052000FEE7704770477047704700000CB5002029
:10053000019000906C48006840F480306A4908607F
:1005400000BF6948006800F4003000900198401C2A
:100550000190009818B90198B0F5A06FF1D16248E8
:10056000006800F4003010B10120009001E000208C
:1005700000900098012843D15C48006840F01000CA
:100580005A4908600846006820F0030008600846E1
:10059000006840F0020008605348406852494860D3
:1005A0000846406848600846406840F480604860FB
:1005B0000846406820F47C1048600846406840F4D3
:1005C000E81048600846006840F08070086000BF8E
:1005D0004548006800F000700028F9D042484068A3
:1005E00020F00300404948600846406840F002009F
:1005F000486000BF3C48406800F00C000828F9D172
:100600000CBD10B5FFF792FF10BD10B5364800685D
:1006100040F0010034490860084640683449084009
:100620003149486008460068324908402E49086050
:100630000846006820F4802008600846406820F4DE
:10064000FE0048604FF41F008860FFF7DAFF4FF0AC
:1006500000602949086010BD10B50021002000226B
:10066000214B5B6803F00C0121B1042906D0082955
:1006700028D107E0214B224C236027E01F4B204C60
:10068000236023E0184B5B6803F47010164B5B6823
:1006900003F48032022303EB904022B9194B434309
:1006A000174C23600DE0104B5B6803F4003323B15B
:1006B000144B4343124C236003E0104B4343104C54
:1006C000236003E00D4B0E4C236000BF00BF064BC0
:1006D0005B68C3F303130C4CE15C094B1B68CB4014
:1006E000074C236010BD00000010024000200240B3
:1006F0000000FFF8FFFFF6FE08ED00E000127A00B0
:100700002800002000093D002C00002008B5012130
:10071000242001F03FFB4FF48070ADF80000102062
:100720008DF8030003208DF802006946094801F0A6
:1007300075F84FF48071074801F01FF90420ADF8F7
:1007400000006946044801F069F80421024801F0FC
:1007500012F908BD000801400014014010B504461C
:1007600044B10021884802F0D9FD0121864802F0F9
:1007700041FB03E00021844802F03CFB10BD10B5B2
:1007800040F22551814801F029FD08B37F4801F06E
:10079000A5FCC4B27E480088B0F5806F12DA002153
:1007A000794802F0BBFD7A48008810B90120FFF7B4
:1007B000D5FF774801880088401C754A108075482D
:1007C000445405E07248008840F4004070490880B5
:1007D00010BD7FB505460C460121042001F0E7FA63
:1007E000ADF80450ADF800400020ADF80600ADF8BB
:1007F00002006946644801F0A1FF012211466248E7
:1008000002F013FB1E208DF80C0001208DF80D0066
:1008100002208DF80E0001208DF80F0003A801F0D2
:1008200026FD7FBD70B58CB006460C4615460121ED
:10083000084601F0A2FA304601F082FD01940295CB
:100840001020039000200490059080200690002046
:100850000790089009904FF480500A9000200B9068
:1008600001A9304601F00EFE0CB070BD10B586B087
:1008700004460121042001F08DFA0121480401F011
:1008800096FA424801F0EAFA0420ADF8100003207D
:100890008DF8120018208DF8130004A93E4800F0CE
:1008A000BDFF0820ADF8100004208DF8130004A946
:1008B000394800F0B3FF00940020ADF80400ADF813
:1008C00006004FF48060ADF808000020ADF80C0081
:1008D0000C20ADF80A0069462C4801F002FB012209
:1008E00080212A4801F0BAFB2C4A2849091D2C48CE
:1008F000FFF798FF0121254801F07FFB012240F21C
:100900002551224801F085FB26208DF81400012096
:100910008DF8150003208DF8160001208DF81700C2
:1009200005A801F0A4FC41F61F41C720FFF751FFC5
:10093000002017490880FFF711FF06B010BD10B561
:100940000121114802F01FFD60B11148008840F4F8
:1009500000400F49088001210B4802F025FD0020CE
:10096000FFF7FCFE10BD70B504460D460021204681
:1009700001F0B3FD2946204601F0C4FD01212046C7
:1009800001F0ABFD70BD00000008004000440040D5
:100990003C000020E804002000080140E80000209E
:1009A000800002402DE9F04796B01C210FA802F00C
:1009B00005FD00241C2108A802F000FDA1465D48A9
:1009C000806801905C48806802905C488068039071
:1009D0005B48806804905B48806805905A4880684E
:1009E00006905A48806807900026002500BF4EE018
:1009F0003546002404E000200FA941F82400641CBF
:100A0000072CF8DB00240CE0284605EBD0714910D8
:100A1000A5EB41010FAA42F8241005EBD0714D104F
:100A2000641C002DF0D1002416E00FA951F8240019
:100A300002F04CFE074601A850F82410384602F098
:100A400032FD08A941F8240008A850F824104846AF
:100A500002F0D1FC8146641C072CE6DB3C4881682F
:100A6000484602F01AFD20F0004A504602F05DFEB2
:100A700007460022374B02F06BFE05D24FF000090B
:100A8000F0B216B0BDE8F0874FF00009761C7F2E5B
:100A9000AEDB0020F5E770B506460C461546A6F11C
:100AA000310007283DD2DFE800F0040C141C242C90
:100AB000340000201F490860886008460460856093
:100AC0002FE000201C4908608860084604608560AB
:100AD00027E00020194908608860084604608560A6
:100AE0001FE00020164908608860084604608560A1
:100AF00017E000201349086088600846046085609C
:100B00000FE0002010490860886008460460856096
:100B100007E000200D490860886008460460856091
:100B200000BF00BF0C4801780C48007800F0A4FA20
:100B300070BD00004400002054000020640000202C
:100B4000740000208400002094000020A4000020F5
:100B5000E808002000001440BD000020BE00002076
:100B600010B586B004460121082001F013F90121D7
:100B7000880401F01CF9504801F070F94FF48060CE
:100B8000ADF8100003208DF8120018208DF8130026
:100B900004A94A4800F042FE4FF40060ADF810008E
:100BA00004208DF8130004A9444800F037FE009497
:100BB0000020ADF80400ADF80600ADF80800ADF86F
:100BC0000C000C20ADF80A0069463B4801F089F999
:100BD0000121394801F011FA012240F2255136482D
:100BE00001F017FA012240F22441334801F011FAD2
:100BF00027208DF8140002208DF8150003208DF8B1
:100C0000160001208DF8170005A801F030FB06B092
:100C100010BD0BE000BF2849098801F04001002900
:100C2000F9D00178244A121D1180401C0178002956
:100C3000F0D170470BE000BF1F49098801F0400167
:100C40000029F9D001781C4A121D1180401C01783E
:100C50000029F0D1704710B540F22551164801F037
:100C6000BDFA98B116480078C8280CDC124801F08B
:100C700035FAC1B2124802780078401C104B187047
:100C80001048815402E000200D49087040F22441D0
:100C9000094801F0A3FA70B1074801F01FFA0848AB
:100CA00000780949087000200549087001200749AB
:100CB000087000F045FB10BD00480040000C0140EA
:100CC000B4000020F4080020B5000020B600002089
:100CD00010B5002406E0FC48015DFCA002F062FFB4
:100CE000601CC4B2FA4800788442F4DB6421F64800
:100CF00002F064FB0020F649087010BD10B5002416
:100D0000F4A0FFF786FF4FF4967000F038FCF3A1D3
:100D1000ED4802F05EFBF2490860FFF7D9FF15E0ED
:100D2000FFF7D6FFEBA0FFF774FF4FF4967000F0CB
:100D300026FCEAA1E44802F04CFBE9490860601C8B
:100D4000C4B2032C02D1E7A002F02CFFE4480068F3
:100D50000028E5D010BD10B50024E5A0FFF759FF2D
:100D60004FF4967000F00BFCDCA1D74802F031FB89
:100D7000DB490860FFF7ACFF15E0FFF7A9FFDCA037
:100D8000FFF747FF4FF4967000F0F9FBD3A1CE4870
:100D900002F01FFBD2490860601CC4B2032C02D1D0
:100DA000D6A002F0FFFECE4800680028E5D010BDB6
:100DB00010B50024D4A0FFF72CFF4FF4967000F07C
:100DC000DEFBD5A0FFF725FF4FF4967000F0D7FBB0
:100DD000D4A1BD4802F0FDFAC1490860FFF778FFD1
:100DE00013E0FFF775FFCCA0FFF713FF4FF49670E9
:100DF00000F0C5FBCBA1B44802F0EBFAB84908609B
:100E0000032C02D1CAA002F0CDFEB548006800282C
:100E1000E7D0FFF75DFF10BD10B5C8A0FFF7F9FEE2
:100E20004FF4967000F0ABFBC8A1A74802F0D1FACE
:100E3000AB490860FFF74CFFA948006810B9C7A08C
:100E400002F0B0FE10BD10B50024C9A0FFF7E1FE0E
:100E50004FF4967000F093FBA0A19B4802F0B9FA02
:100E60009F490860FFF734FF9D48006810B9C9A08A
:100E700002F098FE10BD10B50024CBA0FFF7C9FE0C
:100E80004FF4967000F07BFB94A18F4802F0A1FA1A
:100E900093490860FFF71CFF02E0C9A002F082FE40
:100EA000CBA1894802F095FA0028F6D110BD10B503
:100EB000CBA0FFF7AEFE642000F061FBCEA0FFF7F1
:100EC000A8FE642000F05BFBD0A0FFF7A2FE642028
:100ED00000F055FBFFF7FCFE10BD2DE9F0419CB082
:100EE00004460D464FF00008642103A802F066FA9C
:100EF000284602F01AFC2246CDE90001C8A103A849
:100F000002F060FE03A8FFF784FE00BFCF48007820
:100F10000128FBD10020CD49087070A16A4802F079
:100F200058FA6F490860FFF7D3FE19E003A8FFF7EE
:100F300070FE4FF4967000F022FB68A1624802F048
:100F400048FA67490860FFF7C3FE08F1010000F0A6
:100F5000FF08B8F1030F03DDBDA002F023FE03E09C
:100F60005F4800680028E1D000BFFFF7B1FE1CB069
:100F7000BDE8F08170B59AB004460D4600266421A4
:100F800001A802F01BFA2B462246B6A101A802F0E6
:100F900019FE01A8FFF73DFE00BFAC48007801280C
:100FA000FBD10020A94908704CA1474802F011FA72
:100FB0004B490860FFF78CFE16E001A8FFF729FEF9
:100FC0004FF4967000F0DBFA44A13F4802F001FABA
:100FD00043490860FFF77CFE701CC6B2032E03DD98
:100FE0009BA002F0DFFD03E03D4800680028E4D04C
:100FF00000BFFFF76DFE1AB070BD10B59AB00024A7
:10100000642101A802F0DAF9A1A101A802F0DAFD39
:1010100001A8FFF7FEFD00BF8C4800780128FBD136
:1010200000208A4908702DA1274802F0D2F92C49E6
:101030000860FFF74DFE16E001A8FFF7EAFD4FF448
:10104000967000F09CFA25A11F4802F0C2F92449CD
:101050000860FFF73DFE601CC4B2032C03DD7CA0DA
:1010600002F0A0FD03E01E4800680028E4D000BFA5
:10107000FFF72EFE1AB010BD70B59EB004460D46A7
:1010800000267821684602F099F929468BA002F0E3
:1010900089FD2B4622468DA1684602F093FD6846E5
:1010A000FFF7B7FD00BF694800780128FBD1002099
:1010B0006649087009A1044802F08BF908490860E4
:1010C000FFF706FE33E10000F4080020256300006E
:1010D000B500002041540D0A000000004F4B0000F5
:1010E000B80000204154204552524F5200000000E9
:1010F00041542B4353510D0A00000000435351202B
:101100004552524F5200000041542B434741545422
:101110003D310D0A0000000041542B434741545417
:101120003F0D0A002B43474154543A310000000060
:101130004347415454204552524F520041542B4D85
:1011400049504C4352454154450D0A002B4D4950DE
:101150004C4352454154453A300000004D49504CF3
:10116000435245415445204552524F520000000021
:1011700041542B4D49504C4144444F424A3D302C40
:10118000333331312C312C2231222C342C320D0AC4
:10119000000000004D49504C4144444F424A204514
:1011A00052524F520000000041542B4D49504C4FB9
:1011B00050454E3D302C3630302C36300D0A000074
:1011C0004D49504C4F50454E205741495400000066
:1011D0002B4D49504C4F425345525645000000009C
:1011E00041542B4D49504C44454C4F424A3D302CC4
:1011F000333331310D0A000041542B4D49504C43DB
:101200004C4F53453D300D0A0000000041542B4D1A
:1012100049504C44454C4554453D300D0A000000B2
:1012200041542B4D49504C4E4F544946593D302C5A
:10123000302C333331312C302C25752C342C342C7C
:10124000252E32662C302C300D0A0000B60000200E
:101250004D49504C4E4F54494659204552524F52D9
:101260000000000041542B4D49504C4E4F5449460C
:10127000593D302C302C333331312C302C25752C0A
:10128000332C322C25752C302C300D0A0000000038
:1012900041542B4D49504C4E4F544946593D302CEA
:1012A000302C333331312C302C353730362C312C37
:1012B000312C302C302C300D0A000000746869731A
:1012C000206973206E756D3A2563000041542B4DE3
:1012D00049504C4E4F544946593D302C302C3333F5
:1012E00031312C302C353730362C312C332C312504
:1012F0006325632C302C300D0A0000006846FFF790
:1013000088FC4FF4967000F03AF9AFF23021604853
:1013100002F05FF85F490860FFF7DAFC701CC6B2A4
:10132000032E04DDAFF2D80002F03CFC03E0594884
:1013300000680028E2D000BFFFF7CAFC1EB070BDF5
:101340002DE9F04190B00120534908700024002796
:101350004FF0000800200E900F9050A14C4802F072
:1013600038F84C49086008460068002875D000200D
:1013700049490870002500264CA1454802F029F88B
:101380000446641C05E020780EA94855681CC5B2C7
:10139000641C20782C28F6D1002016E03C49095C1A
:1013A0002C2901D1711CCEB2062E0CD13849014432
:1013B00089783F4A11703649014401F103083449E4
:1013C00001440F1D03E0411CC8B22828E6DB00BF22
:1013D000282104A801F0F2FF042D0ED19DF83B0056
:1013E0009DF83A10CDE900109DF839309DF838206D
:1013F00030A104A802F0E6FB12E0052D10D19DF803
:101400003C009DF83B109DF83A20CDE90021029068
:101410009DF839309DF838202FA104A802F0D2FBA6
:1014200023480078312806D198F800003349087025
:1014300038783349087004A8FFF7EBFB144800F034
:1014400025F9FFF745FCAFF26C31114801F0C1FFFF
:1014500010B101201049087000BF00200D4908603C
:1014600010B0BDE8F08110B5FFF721FDFFF746FC95
:10147000FFF771FCFFF79CFCFFF7CEFCFFF7E3FCE6
:10148000FFF7F9FC47F2305000F079F810BD00008A
:10149000F4080020B8000020BF0000202B4D495068
:1014A0004C45584543555445000000002C000000B1
:1014B000BC00002041542B4D49504C4558454355E4
:1014C00054455253503D302C2563256325632563D5
:1014D0002C320D0A0000000041542B4D49504C4560
:1014E0005845435554455253503D302C2563256390
:1014F0002563256325632C320D0A0000BE00002001
:10150000BD00002010B56FF0040000F0FAFE2E4878
:1015100000682E49B0FBF1F02D49087008460078AC
:1015200000EB4001C1EBC0104FF6FF7101EAC000B3
:101530002849088010BD0146254A12784A434FF0D9
:10154000E0235A6100229A611A46126942F00102B0
:101550001A6100BF4FF0E022106900F001021AB1D9
:1015600000F48032002AF5D04FF0E022126922F018
:1015700001024FF0E0231A6100229A617047014690
:10158000144A12884A434FF0E0235A6100229A61BC
:101590001A46126942F001021A6100BF4FF0E022C0
:1015A000106900F001021AB100F48032002AF5D06F
:1015B0004FF0E022126922F001024FF0E0231A619D
:1015C00000229A61704700002800002000127A0073
:1015D000C2000020C400002000BF704700BF524A74
:1015E000128802F04002002AF9D0C2B24E4B1B1DF5
:1015F0001A80704710B586B00446012144F20400F9
:1016000000F0C8FB4FF40070ADF8140003208DF813
:10161000160018208DF8170005A9444800F0FEF8C0
:101620004FF48060ADF8140004208DF8170005A970
:101630003E4800F0F3F825208DF8000003208DF8D7
:1016400001008DF8020001208DF80300684600F0CB
:101650000EFE01940020ADF80800ADF80A00ADF8C8
:101660000C00ADF810000C20ADF80E0001A92E48BA
:1016700000F037FC012240F225512B4800F0C9FC54
:101680000121294800F0B9FC06B010BD0BE000BFF5
:101690002549098801F040010029F9D00178224A42
:1016A000121D1180401C01780029F0D1704710B53F
:1016B00040F225511C4800F091FD10B31A4800F08B
:1016C0000DFDC4B21A48008800F40040C8B918489B
:1016D000008800F4804060B10A2C03D00020144937
:1016E000088020E01248008840F40040104908803B
:1016F00019E00D2C06D10E48008840F480400C49BA
:10170000088010E00A480088C0F30D0009490C5415
:1017100007480088401C0649088008460088C728FA
:1017200001DD0020088010BD0038014000080140A4
:10173000CC000020BC09002006488047064800472E
:10174000FEE7FEE7FEE7FEE7FEE7FEE7FEE7FEE771
:10175000FEE7FEE70B0600083101000810B504465D
:10176000CC48844208D10121042000F02DFB002147
:10177000042000F029FB46E0C748844208D101213B
:10178000082000F021FB0021082000F01DFB3AE0BA
:10179000C248844208D10121102000F015FB00212D
:1017A000102000F011FB2EE0BD48844208D1012139
:1017B000202000F009FB0021202000F005FB22E0A2
:1017C000B848844208D10121402000F0FDFA0021F0
:1017D000402000F0F9FA16E0B348844208D1012114
:1017E000802000F0F1FA0021802000F0EDFA0AE0FC
:1017F000AE48844207D10121801500F0E5FA0021AE
:10180000A01500F0E1FA10BD10B50121084600F066
:10181000DBFA0021012000F0D7FA10BD2DE9F041DC
:10182000024600250026002000230024002791F80E
:1018300003C00CF00F0591F803C00CF0100CBCF1C4
:10184000000F03D091F802C04CEA050591F800C0E2
:10185000BCF1000F31D0146800202BE04FF0010CD8
:101860000CFA00F3B1F800C00CEA03069E4220D146
:1018700083004FF00F0C0CFA03F7BC4305FA03FC8E
:101880004CEA040491F803C0BCF1280F06D14FF0D4
:10189000010C0CFA00FCC2F814C00AE091F803C075
:1018A000BCF1480F05D14FF0010C0CFA00FCC2F856
:1018B00010C0401C0828D1D31460B1F800C0BCF19E
:1018C000FF0F34DD546800202EE000F1080C4FF0CB
:1018D000010808FA0CF3B1F800C00CEA03069E42B6
:1018E00021D183004FF00F0C0CFA03F7BC4305FA2B
:1018F00003FC4CEA040491F803C0BCF1280F05D1A5
:1019000000F1080C08FA0CF8C2F8148091F803C032
:10191000BCF1480F07D100F1080C4FF0010808FA9C
:101920000CF8C2F81080401C0828CED35460BDE8E3
:10193000F0814FF6FF710180022181700421C17096
:1019400070470246002093680B400BB1012000E075
:10195000002070470146886880B270470246002028
:10196000D3680B400BB1012000E000207047014616
:10197000C86880B2704701617047416170470AB121
:10198000016100E041617047C16070474FF48032EF
:101990000A4382618161826182698269704702467D
:1019A0000020434B18684FF68073184040EA02103D
:1019B00008433F4B186070473E49C8617047F0B517
:1019C0000A46002300240021002500F00046B6F15D
:1019D000004F02D1364EF16901E0354E7168C0F317
:1019E000034583B200F44016B6F5401F08D121F03C
:1019F00070612F4E766826F070662D4F7E6012E083
:101A000000F48016B6F5801F06D1032606FA05F409
:101A1000A14341F0706106E0460D360103FA06F677
:101A2000B14341F0706122B1460D360103FA06F66A
:101A3000314300F00046B6F1004F02D11C4EF16177
:101A400001E01B4E7160F0BD30B500228B071C0F0A
:101A50000F2303FA04F2164B08338C1053F824308A
:101A60009343134C08348D1044F8253023468C10D2
:101A700053F824308C07240F00FA04F423430C4C51
:101A800008348D1044F8253030BD0A49DC31086037
:101A90007047000000080140000C014000100140A8
:101AA0000014014000180140001C014000200140CA
:101AB0000000014000002042DF48006840F00100C3
:101AC000DD49086008464068DC490840DA4948605A
:101AD00008460068DA490840D749086008460068A7
:101AE00020F4802008600846406820F4FE0048602A
:101AF0004FF41F0088607047CF49096821F4803196
:101B0000CD4A11601146096821F480211160B0F5B9
:101B1000803F03D0B0F5802F0ED106E0C64909689A
:101B200041F48031C44A116007E0C349096841F4B7
:101B3000A021C14A116000E000BF00BF704710B58E
:101B400001460022002300204A11012A02D1BA4C8A
:101B5000236806E0022A02D1B74C236A01E0B64CA2
:101B6000636A01F01F02012494401C400CB1012063
:101B700000E0002010BD38B50020009000240025B2
:101B800000BF3120FFF7DBFF05460098401C0090A6
:101B90000098B0F5A06F01D0002DF2D03120FFF7F2
:101BA000CEFF08B1012400E00024204638BD0146E4
:101BB0000020A14A106820F0F80040EAC10010603F
:101BC0007047A04908607047024600209A4B586849
:101BD00020F47C1042EA01031843974B5860704789
:101BE00098490866704701460020934A506820F0E3
:101BF00003000843506070478F48406800F00C00B5
:101C00007047014600208C4A506820F0F0000843DD
:101C10005060704701460020874A506820F4E06019
:101C200008435060704701460020834A506820F402
:101C3000605040EAC1005060704729B17E4A527A34
:101C400002437D4B5A7204E07B4A527A82437A4BBC
:101C50005A7270477B49D8310860704701460020AE
:101C6000754A506820F44040084350607047002196
:101C7000714A20321170704A82F82010012802D077
:101C800004280AD104E001216B4A2032117005E0DA
:101C90000521694A2032117000E000BF00BF704783
:101CA0006949086070476449096A0143624A1162E0
:101CB0007047654944390860704730B500210022FB
:101CC000002400235C4D6D6805F00C0121B104294E
:101CD00005D0082923D105E05C4D056022E05B4D6D
:101CE00005601FE0544D6D6805F47012524D6D682B
:101CF00005F48034022505EB92421CB9544D55433E
:101D000005600BE04C4D6D6805F400351DB1504D7C
:101D10005543056002E04D4D5543056002E04B4DD3
:101D2000056000BF00BF444D6D6805F0F001090972
:101D3000484D6B5C0568DD4045603F4D6D6805F4BE
:101D4000E061090A434D6B5C4568DD4085603A4DB2
:101D50006D6805F46051C90A3E4D6B5C4568DD4015
:101D6000C560354D6D6805F44041890B3A4D6B5C9B
:101D7000C568B5FBF3F5056130BD29B12E4A52693E
:101D800002432D4B5A6104E02B4A526982432A4B8D
:101D90005A61704729B1284A92690243264B9A61D9
:101DA00004E0254A92698243234B9A61704729B126
:101DB000214AD2690243204BDA6104E01E4AD2690B
:101DC00082431D4BDA61704729B11B4AD268024336
:101DD000194BDA6004E0184AD2688243164BDA6085
:101DE000704729B1144A12690243134B1A6104E087
:101DF000114A12698243104B1A61704712494039E7
:101E0000086070470F49C86470470B49C871704734
:101E10000948406A40F080700749486270470146AF
:101E20000020054A92680A400AB1012000E0002023
:101E30007047014988727047001002400000FFF8A7
:101E4000FFFFF6FE000042428004424200127A0088
:101E500000093D00CE000020DE00002010B5044641
:101E6000FB48844209D101218803FFF7ADFF00211F
:101E70004FF48040FFF7A8FF32E0F648844209D1D2
:101E800001214804FFF7ADFF00214FF40030FFF7B8
:101E9000A8FF25E0F048844209D101218804FFF71A
:101EA000A0FF00214FF48020FFF79BFF18E0EB48D4
:101EB000844209D10121C804FFF793FF00214FF4A8
:101EC0000020FFF78EFF0BE0E548844208D1012196
:101ED0000805FFF786FF00214FF48010FFF781FF10
:101EE00010BD2DE9F04786B005460E460024A246F7
:101EF00000BFA1460027B08900B100BF2F462C8A41
:101F00004CF6FF700440F08804432C82AC894EF6F6
:101F1000F3100440B08831890843718908430443B1
:101F2000AC81AC8A4FF6FF400440B0890443AC82D8
:101F300001A8FFF7C2FEC648874202D1DDF810A013
:101F400001E0DDF80CA0A88900F4004040B10AEBE4
:101F5000CA0000EB0A1031684900B0FBF1F807E055
:101F60000AEBCA0000EB0A1031688900B0FBF1F8F7
:101F70006420B8FBF0F004012009642101FB108902
:101F8000A88900F4004040B1322000EBC900B0FB4A
:101F9000F1F000F00700044308E0322000EB0910E4
:101FA0006421B0FBF1F000F00F0004432C8106B077
:101FB000BDE8F0874FF41651016000218180C18097
:101FC00001810C21418100218181704710B50246B9
:101FD0000020108A4FF2FF0318400B884C882343DF
:101FE0008C882343CC8823431843108210BD0021E2
:101FF000018041808180C180704721B1828942F493
:102000000052828104E082894DF6FF731A4082817A
:102010007047F0B50346002400260025002040F656
:102020006A17B94200D100BF1846C1F3421401F04B
:102030001F06012707FA06F5012C01D10C3004E038
:10204000022C01D1103000E014301AB107682F4380
:10205000076002E00768AF430760F0BD1AB1838AEA
:102060000B43838202E0838A8B4383827047028A18
:102070004FF6F0731A400282028A0A4302827047C6
:1020800082894FF2FF731A40828182890A438281DA
:10209000704721B1828942F00202828104E0828984
:1020A0004FF6FD731A4082817047028A4FF6DF7344
:1020B0001A400282028A0A430282704721B1028AD0
:1020C00042F48042028204E0028A4BF6FF731A4017
:1020D00002827047C1F308028280704701468888F7
:1020E000C0F308007047818941F001018181704788
:1020F000028BD2B20283028B42EA01220283704732
:10210000028B02F47F420283028B0A4302837047F0
:1021100021B1828A42F02002828204E0828A4FF654
:10212000DF731A408282704721B1828A42F0100226
:10213000828204E0828A4FF6EF731A4082827047EF
:1021400021B1828A42F00802828204E0828A4FF63C
:10215000F7731A408282704721B1828942F40042AB
:10216000828103E08289C2F30E028281704721B12D
:10217000828A42F40062828204E0828A4FF2FF7314
:102180001A4082827047828A4FF6FB731A4082821D
:10219000828A0A438282704721B1828A42F0020217
:1021A000828204E0828A4FF6FD731A408282704771
:1021B00002460020B1F5007F00D100BF13880B401C
:1021C0000BB1012000E00020704701F40072B2F56D
:1021D000007F00D100BFCA430280704770B502463D
:1021E000002400230025002040F66A16B14200D1E9
:1021F00000BFC1F3421501F01F03012606FA03F3E5
:10220000012D02D19689334006E0022D02D1168AB3
:10221000334001E0968A33400C12012606FA04F49A
:102220001688344013B10CB1012000E0002070BDCD
:1022300010B50022002340F66A14A14200D100BF6D
:102240000A1201249440A3B2DC43048010BD0000B4
:10225000003801400044004000480040004C00406D
:102260000050004031490143314A1160704770B558
:10227000002100230F22C47804B32D4C246804F4F9
:10228000E064C4F5E064210AC1F10403CA40447863
:1022900004FA03F18478144021430901254C06789F
:1022A000A155047804F01F050124AC4005786D1198
:1022B000AD0005F1E025C5F8004109E0047804F01F
:1022C0001F050124AC401C4D0678761145F82640C8
:1022D00070BD1A4A0A400243154B1B1F1A60704713
:1022E00039B1134A121D12680243114B1B1D1A60AB
:1022F00006E00F4A121D126882430D4B1B1D1A6027
:102300007047042808D14FF0E021096941F0040129
:102310004FF0E022116107E04FF0E021096921F060
:1023200004014FF0E0221161704700000000FA053F
:102330000CED00E000E400E080E100E080FFFF1F22
:1023400001684FF6FE72114001600021016041609A
:102350008160C1608D49884208D18C49083949683B
:1023600041F00F01894A083A51608AE087491431E7
:10237000884208D185490839496841F0F001834A0B
:10238000083A51607DE081492831884208D17F496F
:102390000839496841F470617C4A083A516070E03C
:1023A0007A493C31884208D178490839496841F472
:1023B0007041764A083A516063E07449503188426E
:1023C00008D172490839496841F470216F4A083AC6
:1023D000516056E06D496431884208D16B49083933
:1023E000496841F47001694A083A516049E0674917
:1023F0007831884208D165490839496841F07061EF
:10240000624A083A51603CE06149884206D1011FA6
:10241000096841F00F01021F116032E05C4914317C
:10242000884208D15A49091F096841F0F001584A09
:10243000121F116025E056492831884208D15449BD
:10244000091F096841F47061514A121F116018E0B8
:102450004F493C31884208D14D49091F096841F470
:1024600070414B4A121F11600BE0494950318842BC
:1024700007D14749091F096841F47021444A121FD6
:102480001160704710B50022026847F6F0739A4356
:102490000C6A8B6823430C6923434C6923438C6982
:1024A0002343CC6923434C6A23438C6A23431A4356
:1024B0000260CB6843600B6883604B68C36010BDEB
:1024C0000021016041608160C16001614161816101
:1024D000C161016241628162704721B1026842F0CC
:1024E0000102026004E002684FF6FE731A400260C7
:1024F00070471AB103680B43036002E003688B4323
:1025000003607047416070470146486880B2704779
:1025100001460020002201F080531BB11C4B083BF8
:102520001A6802E0194B083B1A6802EA01030BB172
:10253000012000E00020704700F0805119B11449DB
:10254000091F086002E011490839486070470146D8
:102550000020002201F080531BB10D4B083B1A688C
:1025600002E00A4B083B1A6802EA01030BB10120A2
:1025700000E00020704700F0805119B10449091FA4
:10258000086002E0014908394860704708000240CD
:102590000804024010B50446FE48844208D10121D7
:1025A000C014FFF711FC0021E014FFF70DFCC4E09C
:1025B000B4F1804F08D101210846FFF712FC002139
:1025C0000120FFF70EFCB8E0F348844208D1012156
:1025D0000220FFF706FC00210220FFF702FCACE01E
:1025E000EE48844208D101210420FFF7FAFB0021C4
:1025F0000420FFF7F6FBA0E0E948844208D101215E
:102600000820FFF7EEFB00210820FFF7EAFB94E02B
:10261000E448844208D101211020FFF7E2FB0021A9
:102620001020FFF7DEFB88E0DF48844208D101215B
:102630002020FFF7D6FB00212020FFF7D2FB7CE013
:10264000DA48844208D101214014FFF7BDFB002184
:102650006014FFF7B9FB70E0D548844209D101212D
:10266000C804FFF7B1FB00214FF40020FFF7ACFBDB
:1026700063E0D048844209D101210805FFF7A4FB9B
:1026800000214FF48010FFF79FFB56E0CA488442B8
:1026900009D101214805FFF797FB00214FF40010F5
:1026A000FFF792FB49E0C548844208D10121402050
:1026B000FFF797FB00214020FFF793FB3DE0C04868
:1026C000844208D101218020FFF78BFB002180206C
:1026D000FFF787FB31E0BB48844208D10121801518
:1026E000FFF77FFB0021A015FFF77BFB25E0B64835
:1026F000844209D101210804FFF766FB00214FF451
:102700008030FFF761FB18E0B048844209D1012115
:102710004804FFF759FB00214FF40030FFF754FB4A
:102720000BE0AB48844208D101218804FFF74CFB41
:1027300000214FF48020FFF747FB10BD00220288E4
:10274000944B98420ED0994B98420BD0B0F1804FE9
:1027500008D0914B984205D0904B984202D0904BB4
:10276000984204D14FF68F731A404B881A438D4B11
:10277000984207D08C4B984204D04FF6FF431A4042
:10278000CB881A4302808B8883850B880385814B15
:1027900098420BD0854B984208D08B4B984205D07D
:1027A0008A4B984202D08A4B984201D10B7A038619
:1027B00001238382704770B5002400220023058C1A
:1027C0004FF6FE7635400584028C8388048B4FF6E5
:1027D0008F752C40B51E2C400D882C43751E2A4049
:1027E0000D892A434D882A436A4DA8420BD06F4D6C
:1027F000A84208D0744DA84205D0744DA84202D01A
:10280000734DA84213D14FF6F7752A404D892A43DC
:102810004FF6FB752A408D882A434FF6FF652B4003
:102820004FF6FF552B408D892B43CD892B43838059
:102830000483CD888586028470BD70B50024002293
:102840000023058C4FF6EF7635400584028C838893
:10285000048B48F6FF752C404FF6FF452C400D8841
:102860004FF6FF7606EA05252C434FF6DF752A4022
:102870000D8906EA05152A434D8806EA05152A43FF
:10288000444DA84202D0494DA8421DD14FF67F7554
:102890002A404D894FF6FF7606EA05152A434FF682
:1028A000BF752A408D8806EA05152A434FF6FF3585
:1028B0002B404FF2FF752B408D8906EA85052B438F
:1028C000CD8906EA85052B4383800483CD8805875F
:1028D000028470BD70B5002400220023058C4FF6E1
:1028E000FF6635400584028C8388848B4FF68F7594
:1028F0002C404FF6FC752C400D882C434FF6FF55AD
:102900002A400D894FF6FF7606EA05252A434D88B1
:1029100006EA05252A431F4DA84202D0234DA842AE
:102920001DD14FF2FF752A404D894FF6FF7606EA1A
:1029300005252A434FF6FF352A408D8806EA0525EE
:102940002A434EF6FF752B404DF6FF752B408D89BF
:1029500006EA05152B43CD8906EA05152B4383802E
:102960008483CD888587028470BD70B500220023E2
:102970000024058C4EF6FF7635400584038C848850
:10298000828B48F6FF752A404FF6FF452A400D8896
:1029900020E00000002C014000040040000800403E
:1029A000000C0040001000400014004000340140C2
:1029B000004C01400050014000540140001800400C
:1029C000001C004000200040004001400044014045
:1029D000004801404FF6FF7606EA05252A434DF6EA
:1029E000FF752B400D8906EA05352B434D8806EA15
:1029F00005352B43FA4DA84202D0FA4DA84208D122
:102A00004BF6FF752C408D894FF6FF7606EA85154B
:102A10002C4384808283CD88A0F84050038470BD0D
:102A2000828B4FF2FF331A408283828B4FF6FF7303
:102A300003EA01231A4382837047F0B50C4615461A
:102A4000002200210026078C4EF6FF7C07EA0C07C7
:102A50000784828B018C4FF6FF7707EA043640F635
:102A6000FF473A404FF6FF7707EA05273A434FF60C
:102A7000FF7707EA03373A43D94FB8420ED0D94F10
:102A8000B8420BD0B0F1804F08D0D74FB84205D034
:102A9000D64FB84202D0D64FB84206D14DF6FF7796
:102AA000394046F48057394305E047F6FF5739402F
:102AB00044F48057394382830184F0BD828B4FF602
:102AC000F3731A408283828B0A4382837047F0B586
:102AD0000C461546002200210026078C4FF6FF6C9D
:102AE00007EA0C070784828B018C4FF6FF7707EA11
:102AF00004264FF60C773A404FF6FF7707EA0317A4
:102B00002F433A43B64FB8420ED0B64FB8420BD01F
:102B1000B0F1804F08D0B44FB84205D0B34FB8429F
:102B200002D0B34FB84206D14FF6FF57394046F4B2
:102B30008077394305E04FF2FF57394044F48077FE
:102B4000394382830184F0BD028B4FF2FF331A4078
:102B50000283028B4FF6FF7303EA01231A430283B9
:102B60007047F0B50C461546002200210026078C60
:102B70004FF6EF7C07EA0C070784028B018C4FF6B7
:102B8000FF7707EA041640F6FF473A404FF6FF7713
:102B900007EA03373A434FF6FF7707EA05273A4338
:102BA0008F4FB8420ED08F4FB8420BD0B0F1804F4C
:102BB00008D08D4FB84205D08C4FB84202D08C4F10
:102BC000B84206D14FF6DF77394046F01007394357
:102BD00005E04FF65F77394044F010073943028330
:102BE0000184F0BD028B4FF6F3731A400283028B0F
:102BF0000A4302837047F0B50C46154600220021B7
:102C0000068C4FF6FE773E400684028B018C4FF611
:102C10000C7632407E1C06EA03162E433243704E79
:102C2000B0420ED06F4EB0420BD0B0F1804F08D002
:102C30006D4EB04205D06D4EB04202D06C4EB042E7
:102C400006D14FF6FD76314044F00106314305E0F0
:102C50004FF6F576314044F001063143028301849A
:102C6000F0BD70B505460C465D4885420ED05D4806
:102C700085420BD0B5F1804F08D05B48854205D026
:102C80005A48854202D05A48854200D100E000BF30
:102C9000208850B92389A28861882846FFF7ABFFB6
:102CA000E1882846FFF79EFF25E0208804280AD106
:102CB0002389A28861882846FFF753FFE1882846C8
:102CC000FFF742FF17E0208808280AD12389A2884D
:102CD00061882846FFF7FBFEE1882846FFF7EEFEF5
:102CE00009E02389A28861882846FFF7A6FEE188CB
:102CF0002846FFF795FE70BD2DE9F04105460C46CC
:102D000000260127608808B9022600E00026A08876
:102D1000012801D1022700E001272088A0B92389DA
:102D2000A28861882846FFF766FFE1882846FFF7FA
:102D300059FF23893A4631462846FFF712FFE188BA
:102D40002846FFF701FF13E02389A28861882846FF
:102D5000FFF707FFE1882846FFF7F6FE23893A468A
:102D600031462846FFF747FFE1882846FFF73AFF3C
:102D7000BDE8F0810A884B881A438B881A43CB88B8
:102D80001A430B891A434B891A438B891A43A0F8BB
:102D9000442070474FF6FF71818000210180C1807F
:102DA0004180017270470021018041808180C18093
:102DB000018141818181C181704700210180418071
:102DC000012181800021C1800181704700210180A3
:102DD00041808180C18001814181818170470000F3
:102DE000002C014000340140000400400008004075
:102DF000000C004021B1028842F00102028004E090
:102E000002884FF6FE731A400280704731B1B0F865
:102E1000442042F40042A0F8442005E0B0F84420E9
:102E2000C2F30E02A0F8442070471AB183890B4305
:102E3000838102E083898B4383817047818270475D
:102E400041EA0203A0F8483070471AB183890B4366
:102E5000838102E083898B438381704701894FF628
:102E6000F8721140018170470A46002101894FF62E
:102E70008F73194011430181704730B504460D46E8
:102E800029462046FFF7F0FF208940F00700208107
:102E900030BD2DE9F04104460D4616461F46602D13
:102EA00006D13B46012231462046FFF75AFE05E097
:102EB0003B46012231462046FFF79DFE294620462B
:102EC000FFF7D2FF208940F007002081BDE8F081A4
:102ED00030B50C4600210189C9B24FF6FF7505EAED
:102EE0000325154325432943018130BD2DE9F041D8
:102EF00005460E4617469846002443463A46314654
:102F00002846FFF7E5FF2C894FF6F870044044F09F
:102F100007044FF68F70044044F070042C81BDE824
:102F2000F081F0B504460D4616461F463B46324634
:102F300029462046FFF7CCFF208940F480402081BD
:102F4000F0BD0185828270470A46002101884FF654
:102F50008F731940114301807047F0B50C46154638
:102F60001E460021002200230189028B038C4FF6AC
:102F7000F877394021434FF6FC473A4040F20117B9
:102F80003A434FF6DD773B404FF6FF7707EA0617E7
:102F90002F433B43018102830384F0BD0A46002195
:102FA000018B4FF68F7319401143018370470A4616
:102FB0000021018B48F6FF7319404FF6FF7303EAB7
:102FC00002231943018370470A460021818B4FF683
:102FD0008F7319401143818370470A460021818B0A
:102FE00048F6FF7319404FF6FF7303EA02231943B3
:102FF0008183704721B1028842F08002028004E0A0
:1030000002884FF67F731A400280704721B1828890
:1030100042F00402828004E082884FF6FB731A407B
:103020008280704721B1828842F00802828004E0E9
:1030300082884FF6F7731A408280704721B18288E8
:1030400042F00102828004E082884FF6FE731A404B
:10305000828070470A460021018B4FF6F7731940B2
:103060001143018370470A460021018B4FF2FF7321
:1030700019404FF6FF7303EA022319430183704797
:103080000A460021818B4FF6F77319401143818363
:1030900070470A460021818B4FF2FF7319404FF6AB
:1030A000FF7303EA02231943818370470A46002114
:1030B000018B4FF6FB7319401143018370470A4699
:1030C0000021018B4FF6FF3319404FF6FF7303EADF
:1030D00002231943018370470A460021818B4FF672
:1030E000FB7319401143818370470A460021818B8D
:1030F0004FF6FF3319404FF6FF7303EA02231943DB
:10310000818370470A460021018B4FF67F73194077
:103110001143018370470A460021018BC1F30E0160
:103120004FF6FF7303EA02231943018370470A46EF
:103130000021818B4FF67F731940114381837047C3
:103140000A460021818BC1F30E014FF6FF7303EA9B
:1031500002231943818370470A460021018C4FF6F0
:10316000FD7319401143018470470A460021018C08
:103170004FF6F77319401143018470470A46002146
:10318000018C4FF6DF7319404FF6FF7303EA021309
:103190001943018470470A460021018C4FF67F7362
:1031A00019404FF6FF7303EA021319430184704775
:1031B0000A460021018C4FF6FF5319404FF6FF736A
:1031C00003EA02231943018470470A460021018C57
:1031D0004FF2FF7319404FF6FF7303EA02231943BE
:1031E000018470470A460021018C4DF6FF73194097
:1031F0004FF6FF7303EA023319430184704730B579
:10320000002301248C40A3B2048C9C430484048CCE
:1032100002FA01F5ADB22C43048430BD30B5002371
:1032200004248C40A3B2048C9C430484048C02FAD2
:1032300001F5ADB22C43048430BD70B503460020C7
:1032400000241846183001258D40ACB21D8CA543D2
:103250001D8409B1082909D100EB6100056825F03A
:10326000700505600568154305600EE00D1FC5F388
:103270004E052844056825F4E045056005684FF6CD
:10328000FF7606EA02263543056070BD21B102884B
:1032900042F00202028004E002884FF6FD731A40F9
:1032A0000280704721B1028842F00402028004E0EB
:1032B00002884FF6FB731A400280704721B1828862
:1032C00042F08002828004E082884FF67F731A40C9
:1032D0008280704702884FF6F7731A400280028896
:1032E0000A430280704782884FF68F731A408280AB
:1032F00082880A438280704702894FF6F8731A4029
:10330000028102890A430281704702894FF67F7366
:103310001A40028102890A43028170478184704702
:103320008185704781867047018770478187704724
:10333000A0F84010704702884FF6FF431A40028001
:1033400002880A43028070470146888E7047014612
:10335000088F70470146888F70470146B1F84000DA
:1033600070470146888C70470146088D70470246B9
:103370000020138A0B400BB1012000E000207047B1
:10338000CA430282704730B5024600200023002461
:10339000158A05EA0103958905EA010413B10CB108
:1033A000012000E0002030BDCA4302827047D2B243
:1033B00001E000F8012B491EFBD270470022F6E71E
:1033C00010B513460A4604461946FFF7F0FF20469B
:1033D00010BD30B505462A460B4612F8010B13F80E
:1033E000014B08B1A042F8D01CB1002802D06D1CDE
:1033F000F1E7284630BDF0B480EA0102D40F420064
:10340000B2EB410F02D20246084611464A0042D0B2
:10341000C30DDDB2C1F3C752AD1A202D35DAC1F3A9
:10342000160141F4000204B15242C5F1200602FA2D
:1034300006F12A411044B3EBD05F23D0C4B1012D73
:10344000A0EBC35009DCF0BC4FF0004202EAC352CB
:10345000DBB200F5000000F00FBA400000F1807010
:1034600000EBC350A0F1807040EAD170490009E040
:10347000490841EAC071A0EBC35000F500004008C4
:1034800000EBC350F0BC00F0EEB96142012202EB48
:103490004101001BF6E7F0BC704781F00041AAE74C
:1034A00080F00040A7E780EA010210B502F0004377
:1034B000400022D04A001FD0010E01EB1261C0F380
:1034C0005600C2F3560240F4000042F40002A0FB92
:1034D000022000047F39140400D0401C50EA12403E
:1034E00001D44000491EC2B20C0604EBD010401CAF
:1034F0004008802A02D003E0002010BD20F0010027
:10350000002900DA0020184310BD2DE9FE4F81EAA2
:10351000030404F0004421F0004100944FF0000B3C
:1035200023F0004350EA01045ED052EA03045BD06A
:10353000C3F30A54C1F30A552C44A4F2F3340194A2
:10354000A0FB0254C1F3130141F48011C3F3130330
:1035500043F4801301FB024400FB034E840A970AE4
:1035600044EA815447EA8357A4FB076802958D0A11
:1035700005FB07854FEA932C04FB0C542705029D9D
:103580004FEA065847EA1637B5EB08056EEB070C0D
:10359000870E920E47EA811742EA8312A7FB0201C7
:1035A000B6EB0B0164EB00042B0D43EA0C335E1801
:1035B00044EB1C50DA465146E7FB0201C5F3130405
:1035C0004FEA0B3343EA14534FEA0432019C43EAB7
:1035D0000603A4F10C040294009CCDE900B400F0B1
:1035E00088F903B0BDE8F08F00200146F9E72DE926
:1035F000F04D81EA030404F0004B21F0004514462D
:103600004FF0000A23F0004150EA050220D054EAAE
:1036100001021DD0C5F30A570246C5F31303C1F3D7
:103620001300C1F30A5640F4801543F48013A7EB4E
:103630000608101BD64608F2FD3873EB050002D3CE
:1036400008F1010801E092185B41B8F1000F03DABC
:1036500000200146BDE8F08D00204FF480110646A1
:1036600084460EE0171B73EB050705D3121B63EBB3
:10367000050306434CEA010C49084FEA3000921852
:103680005B4150EA0107EDD152EA030012D082EA11
:10369000040083EA0501084305D0101BAB4106D2A4
:1036A0000122002306E000224FF0004302E06FF009
:1036B000010253101AEB06004CEB085110EB0A0004
:1036C00041EB0B01BDE8F04D00F004B9C10F80EAF9
:1036D000E0700844CA079623002100F0CDB80EB56B
:1036E00040F2334102910021CDE900110A460B4618
:1036F00000F0FFF803B000BDC1F30A5210B5C1F3EA
:10370000130140F2FF3341F480119A4201DA0020A4
:1037100010BD40F233439A42A2F2334203DC5242DC
:1037200000F091F810BD904010BD00F0004230F064
:1037300000400AD0C10D01F56071C0F3160042EAE5
:103740000151C208400711437047002001467047ED
:1037500030B5041E71F1000404DB4FF00044404218
:1037600064EB0101141E73F1000405DB1C464FF0ED
:103770000043524263EB04038B4208BF824230BDD8
:1037800001F0004330B421F0004150EA010206D0BC
:103790000A0DA2F56072C1F31301002A02DC30BCED
:1037A00000207047440F44EAC104C100E01830BC57
:1037B00000EBC25000F057B830B50B460146002070
:1037C0002022012409E021FA02F59D4205D303FAE3
:1037D00002F5491B04FA02F52844151EA2F1010264
:1037E000F1DC30BD2DE9F05F0546002092469B4696
:1037F00088460646814640241BE028464146474607
:10380000224600F020F853465A46C01A914110D380
:1038100011461846224600F0A3F92D1A67EB01085D
:103820004F4622460120002100F09AF917EB0009CB
:103830004E41201EA4F10104DFDC484631462A46F1
:103840004346BDE8F09F202A04DB203A21FA02F02B
:103850000021704721FA02F3D040C2F120029140CA
:103860000843194670470029A8BF7047401C49000B
:1038700008BF20F00100704710B4B0FA80FC00FAD5
:103880000CF050EA010404BF10BC704749B1CCF100
:10389000200421FA04F411FA0CF118BF012121438C
:1038A0000843A3EB0C01CB1D4FEA00614FEA102047
:1038B00042BF002010BC704700EBC35010440029E9
:1038C000A4BF10BC7047401C490008BF20F0010095
:1038D00010BC704710B5141E73F1000408DA401CC8
:1038E00041F1000192185B411A4301D120F001001F
:1038F00010BD2DE9F04D92469B4611B1B1FA81F20F
:1039000002E0B0FA80F22032904600F029F9044635
:103910000F4640EA0A0041EA0B0153465A46084363
:1039200013D0114653EA010019D0C8F140025046A5
:10393000FFF789FF05460E4650465946424600F0BD
:103940000FF9084305D0012004E020463946BDE8C0
:10395000F08D0020054346EAE0762C4337430A9871
:103960006305E40AA0EB08000022FD0A44EA47547C
:103970000A3002D500200146E9E701051019694126
:10398000DDE9084500196941BDE8F04DA2E72DE9E0
:10399000FE4F804681EA0300C00F0C46009021F0E4
:1039A000004123F00045B8EB0200A94105D2404692
:1039B000214690461C460B46024623F00040104329
:1039C00047D0270DC7F30A00C3F30A510290401AEB
:1039D000019040286BDAC3F3130040F4801B009879
:1039E000924620B10023D2EB030A63EB0B0B019844
:1039F0005946C0F14002504600F0B2F806460D4666
:103A000050465946019A00F0BAF810EB080061419F
:103A1000002487EA115284EAE7731A4340D0009ADF
:103A200062B3019A012A4FEA075215DC001B61EBD1
:103A300002014FF0004202EA0752CDE90042001CA9
:103A400041F5801132462B46FFF753FF03B0BDE826
:103A5000F08F40462146F9E7001B61EB0201001C94
:103A600041F5801300185B412018A2F5001747EBC1
:103A7000030140EAD570B6196D4111E06D084FEAB7
:103A8000360645EAC0754FEA0752001B61EB02019A
:103A9000001C41F5801149084FEA300000195141DE
:103AA00032462B4603B0BDE8F04FFFF713BF009836
:103AB000012240000023D0EB020263EBE073009888
:103AC00021464FEAE074B8EB000061EB0401E9E73E
:103AD00083F000435BE781F0004158E7C1F30A52ED
:103AE000C1F3130140F2FF3341F480119A4202DA2C
:103AF00000200146704740F233439A42A2F233421B
:103B000002DC5242FFF79FBE00F02AB830B5041E17
:103B100071F1000404DB4FF00044404264EB01010A
:103B2000141E73F1000405DB1C464FF000435242A3
:103B300063EB0403994208BF904230BD064C074D29
:103B400006E0E06840F0010394E80700984710346D
:103B5000AC42F6D3FCF7F0FAAC440008CC440008C1
:103B6000202A04DB203A00FA02F10020704791403D
:103B7000C2F1200320FA03F3194390407047202A32
:103B800006DBCB17203A41FA02F043EAE07306E085
:103B900041FA02F3D040C2F1200291400843194695
:103BA000704700000FB4054B10B503A9044A0298F2
:103BB00000F0DEF810BC5DF814FB0000DD15000815
:103BC000C80000200FB4084B10B504A902AA03983E
:103BD00000F0CEF8044602A9002000F060FC204668
:103BE00010BC5DF814FB00009F44000802E008C808
:103BF000121F08C1002AFAD170477047002001E067
:103C000001C1121F002AFBD1704700002DE9FF5FA0
:103C1000DDE90220010DDDF838B0024318D044F68A
:103C20001050A1F2FF3141430D140F98012820D00C
:103C3000A5EB0B00401C5FEA000A4FF00004474E62
:103C4000DFF81C91A046504616D5CAF1000728E0BF
:103C50000F98012443A2012808D0002100980F9B4F
:103C6000C0E90021C0E90243BDE8FF9F6FEA0B01F4
:103C7000F4E7CBF10000DEE7074612E0F80707D0D3
:103C80002246334640464946FFF73FFC8046894678
:103C90002246334610461946FFF737FC04460E46C7
:103CA0007F10002FEAD1DDE90201BAF1000F424690
:103CB0004B4602DAFFF729FC01E0FFF798FC0446C7
:103CC0000E460022284BFFF721FF03D84FF0FF30AC
:103CD000014607E00022254B20463146FFF757FEFC
:103CE000FFF7FCFE102409E0002C0ADB0A22002367
:103CF000FFF778FD019B30321A55641E50EA01022D
:103D0000F2D1641C019AC4F1110314440F9A012AE0
:103D100003D0012208430DD10AE0084304D000205B
:103D20004FF0110B0F9080E7A3EB0B056D1E0DE01C
:103D30005B4504DD4FF0000205F1010504E003DA04
:103D40004FF00002A5F10105002AECD000980F9970
:103D5000C0E90231C0E9004586E7000000002440C8
:103D60000000F03F300000000000F0430000E03FA2
:103D70002DE9FF4F95B09B468946064600250FE288
:103D8000252877D100242746F84A0121059400E030
:103D9000044316F8013F203B01FA03F01042F7D12B
:103DA00030782A2811D06FF02F033078A0F130023C
:103DB000092A16D8059A44F0020402EB820203EBAA
:103DC00042021044761C0590EFE759F8042B059247
:103DD000002A03DA504244F40054059044F00204EF
:103DE000761C30782E2816D116F8010F44F0040402
:103DF0002A280DD06FF02F023078A0F13003092B64
:103E000009D807EB870302EB4303C718761CF3E7D7
:103E100059F8047B761C30786C280FD006DC4C28CF
:103E200017D068280DD06A2814D104E0742810D067
:103E30007A280FD10DE044F400140AE044F4801411
:103E400001E044F440147278824202D104F58014F7
:103E5000761C761C307866280BD013DC582877D077
:103E600009DC002875D04528F6D04628F4D047282C
:103E70001AD19DE118E0632835D0642879D06528EF
:103E800012D195E1702873D008DC6728F1D0692839
:103E90006FD06E280DD06F2806D1B5E073282CD0D6
:103EA000752875D0782874D05A46179990476D1C9C
:103EB00075E1C4F30250022809D003280DD0D9F8C7
:103EC000001004280DD00D6009F1040967E1D9F84C
:103ED0000010EA17C1E90052F6E7D9F800100D808A
:103EE000F2E70D70F0E719F8041B8DF800100020C0
:103EF0008DF80100EA46012003E059F804AB4FF0C9
:103F0000FF3061074FF0000102D40DE008F101011C
:103F10008846B9420FDA8045F8DB1AF80810002904
:103F2000F4D108E008F1010188468142FADB1AF871
:103F300008100029F6D105985B46A0EB080721463A
:103F40003846179A00F094FA284400EB080507E079
:103F50004DE029E10DE01AF8010B5A4617999047F8
:103F6000B8F10108F7D25B4621463846179A13E1AB
:103F700042E00A220092C4F302524FF0000A022AE1
:103F800008D059F804CB032A4FEAEC710AD00DE0AF
:103F900029E02AE009F1070121F00702F2E802C155
:103FA000914609E00FFA8CFC4FEAEC71042A03D128
:103FB0004FFA8CFC4FEAEC71002907DA0A4600211F
:103FC000DCF1000C61EB02012D2202E0220504D598
:103FD0002B228DF80420012203E0E20701D02022E9
:103FE000F7E7904659E00A2102E010220DE0102187
:103FF0004FF0000A00910BE010224FF0000A44F04D
:1040000004040827009203E008224FF0000A0092FF
:10401000C4F30252022A05D059F804CB0021032A26
:1040200008D009E009F1070121F00702F2E802C116
:10403000914605E01FFA8CFC042A01D10CF0FF0C1C
:104040004FF00008220728D5702806D0009B83F087
:10405000100353EA0A0305D00EE040228DF8042035
:10406000012208E05CEA010206D030228DF804202B
:104070008DF8050002229046009B83F0080353EA66
:104080000A030AD15CEA010201D1620705D5302298
:104090008DF804204FF001087F1E582804D034A06A
:1040A00003900EA802900DE036A0F9E75346604653
:1040B000009AFFF797FB84460398825C0298401EA3
:1040C000029002705CEA0100F0D1029806A9081A79
:1040D00000F1200A600702D524F4803400E00127B3
:1040E000574502DDA7EB0A0000E0002000EB0A01C3
:1040F000009005984144401A0590E00306D45B46C1
:104100002146179A059800F0B3F90544002706E008
:1041100001A85A46C05D179990476D1C7F1C474502
:10412000F6DBE0030CD55B462146179A059800F0B4
:104130009FF9054404E030205A46179990476D1CBA
:104140000099481E00900029F5DC08E002980299C9
:104150005A460078491C0291179990476D1CBAF194
:104160000001AAF1010AF1DC65E100000928010063
:1041700030313233343536373839616263646566DD
:10418000000000003031323334353637383941429F
:10419000434445460000000000F058F90544761CF1
:1041A000307800287FF4ECAD19B02846BDE8F08FD8
:1041B000620700D4062709F1070222F0070CFCE889
:1041C0000223E14603F000485FEA080C02D00FF238
:1041D000702C0DE05FEA045C02D50FF2682C07E05A
:1041E0005FEAC47C02D00FF2602C01E0AFF2700CE9
:1041F0004FF0FF3823F00043CDF850C065280CD0B5
:1042000006DC452809D046281DD047283DD13DE091
:10421000662818D067287ED138E00021112F01DBF5
:10422000112000E0781CCDE9000106A90EA8FFF7D7
:10423000EDFCDDE90F010E9A03910021009207F1D8
:10424000010A04914DE04FF000400097CDE90110C4
:1042500006A90EA8FFF7DAFCDDE90F0203920E9B18
:1042600011990022DDF80CA00093049211B9791C79
:1042700000EB010AB7EB0A0004D4C0F1FF3007F1EC
:10428000010A0490AAEB0700019044E0012F00DA34
:1042900001270021112F01DD112000E03846CDE972
:1042A000000106A90EA8FFF7B1FCDDE90F010E9A87
:1042B0000391002104910092BA4621070CD403997E
:1042C000514500DA8A46BAF1010F05DD009AAAF1DC
:1042D0000101515C302908D0B84202DA10F1040F14
:1042E00006DA0121CDE9011015E0AAF10101E9E7A3
:1042F000002805DC049901440491AAEB000102E0C6
:10430000411C514500DD8A460499401A401C019029
:104310004FF000400290200704D40198504501DB83
:10432000CDF8048000208DF84F0002980DF14F0762
:10433000B0F1004F25D02B200E9002984FF00208CC
:1043400000280CDA404202902D200E9007E00A214E
:104350000298FFF731FA3031029007F8011DB8F1E9
:104360000001A8F10108F2DC02980028EFD1791EC3
:104370000E980870307800F0200040F0450007F8F3
:10438000020D12A8C01B00F107081498007800B1B4
:10439000012000EB0A01019801EBE071059841440E
:1043A000401A401E0590E00306D45B462146179A4A
:1043B000059800F05DF805441498007818B15A4645
:1043C000179990476D1CE00324D55B462146179A48
:1043D000059800F04DF805441CE00498002807DB20
:1043E000DDE90301884203DD0098405C179901E094
:1043F000179930205A469047049805F10105401C52
:1044000004900198401E019004D12E205A4617991D
:1044100090476D1CBAF10001AAF1010ADDDC05E04C
:1044200017F8010B5A46179990476D1CB8F1000117
:10443000A8F10108F4DC5B462146179A0598ABE623
:104440002D0000002B000000200000002DE9F041AD
:10445000044600251E461746880404D405E0394664
:104460002020B0476D1C641EF9D52846BDE8F081B8
:104470002DE9F041044600251E469046C80301D5AB
:10448000302700E02027880404D505E0414638465F
:10449000B0476D1C641EF9D52846BDE8F0810A6856
:1044A000531C0B60107070476F666600CC440008A8
:1044B00000000020E4000000EC3B0008B0450008CC
:1044C000E4000020A40D0000FC3B000800000000F8
:1044D00000000000000000000000000000000000DC
:1044E00000000000000000000000000000000000CC
:1044F0000000000000A24A040000000000000000CC
:104500000102030406070809000000000000000083
:1045100052B85F430000000048E10E43A844000881
:10452000000000000000000000000000A844000897
:10453000000000000000000000000000A844000887
:10454000000000000000000000000000A844000877
:10455000000000000000000000000000A844000867
:10456000000000000000000000000000A844000857
:10457000000000000000000000000000A844000847
:1045800000000000000000000030300101000000C9
:104590000000000000000000000000000000010218
:1045A00003040102030406070809020406080000C8
:0400000508000131BD
:00000001FF
